:020000040800F2
:10000000001D0020050100082D1900087B120008C2
:10001000291900080D0E0008F13600080000000044
:10002000000000000000000000000000D52C0008C7
:10003000CD1000080000000079260008E132000819
:100040008D0100088D0100088D0100088D01000858
:100050008D0100088D0100088D0100088D01000848
:100060008D0100088D0100088D0100088D01000838
:100070008D0100088D0100088D0100088D01000828
:100080008D0100088D0100088D0100088D01000818
:100090008D0100088D0100088D0100088D01000808
:1000A0008D0100088D0100088D0100088D010008F8
:1000B000F53300088D010008713400088D01000837
:1000C0008D0100088D0100088D0100088D010008D8
:1000D0008D0100088D0100088D0100088D010008C8
:1000E0008D0100088D0100088D010008DFF810D097
:1000F00000F0C8FC00480047AD480008AFF300809E
:10010000001D00200BE0FEE72148016801F101011C
:1001100001604FF01902914200DBF4E770471D487F
:100120004FF000014FF00802002A03D040F8041BF2
:10013000521EF9D1184801881848028818480388C7
:1001400044F24734A1420CD144F64354A24208D1B0
:100150004FF4AA44A34204D10E484FF000010170AD
:1001600003E00C484FF00001017009484FF0000116
:10017000016003F0B7F80B480047FEE7FEE7FEE733
:10018000FEE7FEE7FEE7FEE7FEE7FEE7FEE700002C
:10019000041000200010002006E0000808E000081D
:1001A0000AE00008ED0000080649074A08685043C5
:1001B00043F2390210440860400870470149086062
:1001C00070470000F80000206D4EC641F0B480EA90
:1001D0000102D40F4200B2EB410F02D202460846A0
:1001E00011464A0042D0C30DDDB2C1F3C752AD1A69
:1001F000202D35DAC1F3160141F4000204B1524258
:10020000C5F1200602FA06F12A411044B3EBD05F93
:1002100023D0C4B1012DA0EBC35009DCF0BC4FF0DA
:10022000004202EAC352DBB200F5000000F078BAE7
:10023000400000F1807000EBC350A0F1807040EAF4
:10024000D170490009E0490841EAC071A0EBC350F0
:1002500000F50000400800EBC350F0BC00F057BAB6
:100260006142012202EB4101001BF6E7F0BC70473E
:1002700081F00041AAE780F00040A7E780EA010290
:1002800010B502F00043400022D04A001FD0010EFA
:1002900001EB1261C0F35600C2F3560240F40000B5
:1002A00042F40002A0FB022000047F39140400D0B5
:1002B000401C50EA124001D44000491EC2B20C0654
:1002C00004EBD010401C4008802A02D003E000203C
:1002D00010BD20F00100002900DA0020184310BDF5
:1002E00030B480EA010202F0004530F0004221F013
:1002F000004013D090B1C30DD40DC2F31601C0F36A
:100300001600E41A41F4000140F400027D349142E9
:1003100001D3641C00E04900002C02DA30BC00204C
:1003200070474FF400000023914201D3891A034320
:1003300040084FEA4101F7D151B1914202D14FF04B
:10034000004105E002D24FF0010101E06FF0010130
:1003500003EBC450284430BC00F0D9B92DE9FE4F5E
:1003600081EA030404F0004421F0004100944FF0BE
:10037000000B23F0004350EA01045ED052EA03046C
:100380005BD0C3F30A54C1F30A552C44A4F2F334EE
:100390000194A0FB0254C1F3130141F48011C3F393
:1003A000130343F4801301FB024400FB034E840A51
:1003B000970A44EA815447EA8357A4FB07680295E9
:1003C0008D0A05FB07854FEA932C04FB0C54270587
:1003D000029D4FEA065847EA1637B5EB08056EEB63
:1003E000070C870E920E47EA811742EA8312A7FB99
:1003F0000201B6EB0B0164EB00042B0D43EA0C3356
:100400005E1844EB1C50DA465146E7FB0201C5F387
:1004100013044FEA0B3343EA14534FEA0432019CAE
:1004200043EA0603A4F10C040294009CCDE900B455
:1004300000F0B3F903B0BDE8F08F00200146F9E702
:100440002DE9F04D81EA030404F0004B21F0004552
:1004500014464FF0000A23F0004150EA050220D074
:1004600054EA01021DD0C5F30A570246C5F313032F
:10047000C1F31300C1F30A5640F4801543F480130E
:10048000A7EB0608101BD64608F2FD3873EB0500F3
:1004900002D308F1010801E092185B41B8F1000FA6
:1004A00003DA00200146BDE8F08D00204FF48011F2
:1004B000064684460EE0171B73EB050705D3121B97
:1004C00063EB050306434CEA010C49084FEA300090
:1004D00092185B4150EA0107EDD152EA030012D0B5
:1004E00082EA040083EA0501084305D0101BAB41F2
:1004F00006D20122002306E000224FF0004302E072
:100500006FF0010253101AEB06004CEB085110EB90
:100510000A0041EB0B01BDE8F04D00F02FB9C10F0F
:1005200080EAE0700844CA079623002100F0F8B87A
:1005300096230022114600F0F3B800F0004220F0AC
:100540000040C10DC0F3160040F400007F2901DA1D
:1005500000207047962903DCC1F19601C84001E0F4
:1005600096398840002AF4D04042704770B5C1F3F4
:100570000A5201F000450024C1F3130140F2FF3399
:1005800041F480119A4201DA002070BD40F23343F9
:100590009A42A2F2334203DC524200F0A8F800E093
:1005A00090402C43F1D0404270BD00F0004230F04A
:1005B00000400AD0C10D01F56071C0F3160042EA97
:1005C0000151C2084007114370470020014670479F
:1005D00030B5041E71F1000404DB4FF000444042CA
:1005E00064EB0101141E73F1000405DB1C464FF09F
:1005F0000043524263EB0403994208BF904230BD6E
:1006000001F0004330B421F0004150EA010206D06D
:100610000A0DA2F56072C1F31301002A02DC30BC9E
:1006200000207047440F44EAC104C100E01830BC08
:1006300000EBC25000F06BB8002801DBC0F10040B5
:10064000002901DBC1F1004181427047002801DB34
:10065000C0F10040002901DBC1F100418842704730
:1006600030B50B46014600202022012409E021FA82
:1006700002F59D4205D303FA02F5491B04FA02F57F
:100680002844151EA2F10102F1DC30BD2DE9F05F16
:100690000546002092469B468846064681464024F1
:1006A0001BE0284641464746224600F020F85346C4
:1006B0005A46C01A914110D311461846224600F0FE
:1006C000F3F92D1A67EB01084F462246012000215D
:1006D00000F0EAF917EB00094E41201EA4F10104D5
:1006E000DFDC484631462A464346BDE8F09F202AD3
:1006F00004DB203A21FA02F00021704721FA02F3CC
:10070000D040C2F1200291400843194670470029A9
:10071000A8BF7047401C490008BF20F00100704787
:1007200010B4B0FA80FC00FA0CF050EA010404BFE7
:1007300010BC704749B1CCF1200421FA04F411FA3D
:100740000CF118BF012121430843A3EB0C01CB1D81
:100750004FEA00614FEA102042BF002010BC7047F2
:1007600000EBC35010440029A4BF10BC7047401CCC
:10077000490008BF20F0010010BC704710B5141EDE
:1007800073F1000408DA401C41F1000192185B414A
:100790001A4301D120F0010010BD2DE9F04D924621
:1007A0009B4611B1B1FA81F202E0B0FA80F2203238
:1007B000904600F079F904460F4640EA0A0041EA03
:1007C0000B0153465A46084313D0114653EA010021
:1007D00019D0C8F140025046FFF789FF05460E4682
:1007E00050465946424600F05FF9084305D00120C3
:1007F00004E020463946BDE8F08D0020054346EA76
:10080000E0762C4337430A986305E40AA0EB08001E
:100810000022FD0A44EA47540A3002D5002001466E
:10082000E9E7010510196941DDE908450019694149
:10083000BDE8F04DA2E72DE9FE4F804681EA0300B6
:10084000C00F0C46009021F0004123F00045B8EBAA
:100850000200A94105D24046214690461C460B465F
:10086000024623F00040104347D0270DC7F30A008B
:10087000C3F30A510290401A019040286BDAC3F387
:10088000130040F4801B0098924620B10023D2EB65
:10089000030A63EB0B0B01985946C0F14002504626
:1008A00000F002F906460D4650465946019A00F0FE
:1008B0000AF910EB08006141002487EA115284EA2A
:1008C000E7731A4340D0009A62B3019A012A4FEAB3
:1008D000075215DC001B61EB02014FF0004202EAF7
:1008E0000752CDE90042001C41F5801132462B46EB
:1008F000FFF753FF03B0BDE8F08F40462146F9E70C
:10090000001B61EB0201001C41F5801300185B41E4
:100910002018A2F5001747EB030140EAD570B6197D
:100920006D4111E06D084FEA360645EAC0754FEAA1
:100930000752001B61EB0201001C41F580114908C0
:100940004FEA30000019514132462B4603B0BDE852
:10095000F04FFFF713BF0098012240000023D0EBB7
:10096000020263EBE073009821464FEAE074B8EBB3
:10097000000061EB0401E9E783F000435BE781F0ED
:10098000004158E770B521F0004303430CD0C1F398
:100990000A550024D5EB040564EB0403D617AD1A01
:1009A000B34102DB0020014670BD201841EB02512B
:1009B00070BD2DE9F04D00231A461B1A8A4103DB56
:1009C00000200146BDE8F08DC1F30A52C1F31301C6
:1009D00041F480154FF0000BD10702D100186D4192
:1009E000521E0027044640F2FF11384601EB620A0E
:1009F0003E468046024600204FF48011FFF777FE06
:100A0000C2197141BB1846EB0100B4EB030C75EB46
:100A1000000C04D3E41A65EB000517460E462419B2
:100A200008F101006D4180463428E3DDF91946EBF9
:100A30000600091BA84103D24FF0FF32134601E024
:100A4000002213461BEB070046EB0A51BDE8F04DB0
:100A5000FFF794BEC1F30A52C1F3130140F2FF3312
:100A600041F480119A4202DA00200146704740F2B8
:100A700033439A42A2F2334202DC5242FFF737BEBE
:100A800000F012B8064C074D06E0E06840F00103A4
:100A900094E8070098471034AC42F6D3FFF72AFBDE
:100AA000207B0008407B0008202A04DB203A00FA63
:100AB00002F1002070479140C2F1200320FA03F3B5
:100AC000194390407047202A06DBCB17203A41FAA1
:100AD00002F043EAE07306E041FA02F3D040C2F1CB
:100AE0002002914008431946704721B1826842F0C4
:100AF0000102826003E0826822F001028260704796
:100B0000014600208A6802F004020AB1012000E0D8
:100B1000002070470146C86C80B270470246002032
:100B200013680B400BB1012000E000207047014624
:100B300000208A6802F008020AB1012000E00020CB
:100B40007047000070B504460D462B460122214631
:100B5000084800F039F80121064800F096F800BF77
:100B600002210448FFF7DAFF0028F9D00148FFF717
:100B7000D1FF70BD0024014030B5024600200023A3
:100B800050680F4C20400D790C6844EA052420433E
:100B9000506090680B4C2040D1E902542C434D79B1
:100BA00044EA450420439060D06A20F470000C7C35
:100BB000641EE4B2234340EA0350D06230BD00001B
:100BC000FFFEF0FFFDF7F1FFF0B504460D460020F3
:100BD0000021092D11DDE068A5F10A0606EB4607A4
:100BE000072606FA07F18843A5F10A0606EB460632
:100BF00003FA06F10843E0600CE0206905EB4507C5
:100C0000072606FA07F1884305EB450603FA06F1C5
:100C100008432061072A0FDA606B561E06EB860731
:100C20001F2606FA07F18843561E06EB860605FACC
:100C300006F10843606322E00D2A0FDA206BD61F0D
:100C400006EB86071F2606FA07F18843D61F06EB38
:100C5000860605FA06F10843206310E0E06AA2F177
:100C60000D0606EB86071F2606FA07F18843A2F158
:100C70000D0606EB860605FA06F10843E062F0BDB4
:100C8000816841F008018160704721B1826842F4B7
:100C9000A002826003E0826822F4A00282607047B2
:100CA000816841F0040181607047000000B585B0A3
:100CB0000121480201F0FEFC4FF4004001F0DEFC8F
:100CC0000020009003904FF46020029000208DF8E7
:100CD00005008DF8040001208DF8100069460D48CC
:100CE000FFF74AFF01210B48FFF7FFFE0948FFF716
:100CF000C7FF00BF0748FFF71AFF0128FAD00548D1
:100D0000FFF7CEFF00BF0348FFF7FAFE0128FAD035
:100D100005B000BD0024014010B52248807B0128A9
:100D200015D121494879FFF703FC04461D48816825
:100D30002046FFF78BFC2DD31B490879FFF7F8FB02
:100D40000446184881682046FFF776FC22D31548F0
:100D5000006800280BDD134800681349C9888842E1
:100D600018DB1048006810490989884212DC0D48D8
:100D7000406800280BDD0B4840680B498989884290
:100D800008DB084840680849C989884202DC0548F0
:100D9000C07B18B101200549487002E000200349DA
:100DA000487010BD00010020140100200000002048
:100DB00008B50121102001F07DFC10208DF8030002
:100DC0004002ADF8000003208DF802006946044897
:100DD00000F0B6F94FF40051014800F045FA08BDA3
:100DE0000010014010B500224FF40051014800F0FE
:100DF0003FFA10BD0010014010B501225103024816
:100E000000F036FA10BD00000010014000BFFEE700
:100E100010B50848007810B100F028FD01E000F09E
:100E20001BFD0448407810B1FFF7E6FF01E0FFF733
:100E3000D9FF10BD0000002010B50024002000F0F4
:100E400093F804E0601CC4B2012003F089FB4FF466
:100E500080710F4800F0FFF908B1C82CF2DBC82CF4
:100E600001DB012010BD002404E0601CC4B201209D
:100E700003F076FB4FF48071054800F0ECF908B9F7
:100E8000F02CF2DBF02C01DB0120EBE70020E9E79E
:100E9000000801402DE9F84F00F0D8F800F0BEF846
:100EA000FFF7CAFFCC2000F0DDF8BE2000F0DAF832
:100EB00000F0A2F8834600F09FF88146B9F1070FD1
:100EC0000ADD6FEA090000F0FF096FEA0B0000F08D
:100ED000FF0B4FF0000A01E04FF0010A4C462002E0
:100EE00004B204EB0B0004B22046FFF718FB00909D
:100EF000FFF75BFB074600220A4BFFF72FFA054678
:100F0000FFF734FB04B2B4F5487F02DD0020BDE8F2
:100F1000F88FBAF1000F01D02046F8E7604200B226
:100F2000F5E700000000E43F08B50121042001F0CE
:100F3000C1FB4FF48070ADF8000010208DF8030065
:100F400003208DF802006946064800F0F9F84FF4D6
:100F50008071044800F08AF900F060F8FFF76CFF38
:100F600008BD00000008014038B5044601210420F6
:100F700001F0A0FB54B14FF48070ADF800000320E5
:100F80008DF8020010208DF8030006E04FF4807009
:100F9000ADF8000004208DF803006946014800F018
:100FA000CFF838BD0008014010B50120FFF7DCFF85
:100FB0004FF480710F4800F057F9022003F0D0FA87
:100FC0004FF480710B4800F051F90020FFF7CCFF7F
:100FD0000C2003F0C5FA4FF48071064800F03BF98D
:100FE00008B1012400E00024322003F0B9FA2046C1
:100FF00010BD00000008014070B50026012508E082
:10100000FFF7D2FF0446E00140EA6600C6B2681C62
:10101000C5B2082DF4DD304670BD000010B50120CA
:10102000FFF7A2FF4FF48071074800F01DF940F26E
:10103000EE2003F095FA4FF48071034800F016F9A2
:101040000F2003F08DFA10BD0008014010B5FFF726
:10105000E5FFFFF7F1FECC2000F004F8442000F09B
:1010600001F810BD70B504460120FFF77DFF012592
:1010700026E004F00106641086B14FF48071124836
:1010800000F0F2F8022003F06BFA4FF480710E4882
:1010900000F0ECF83C2003F063FA0FE04FF48071AD
:1010A000094800F0E1F83C2003F05AFA4FF480714F
:1010B000054800F0DBF8022003F052FA681CC5B2C4
:1010C000082DD6DD70BD000000080140704700000B
:1010D00070B5154A1549164803F060FA12480068C1
:1010E000FFF763FA21F0004104460022114BFFF79D
:1010F0006FFA0CD210480078401C0F49087008465F
:10110000007808280DDB01200C49087009E0002058
:101110000949087009480078012802D100200749D0
:1011200008700648007870BD480000204400002088
:101130004000002000804B404D0000204C0000206B
:101140002DE9F0410246002500260020002300245E
:10115000002791F803C00CF00F0591F803C00CF0C4
:10116000100CBCF1000F03D091F802C04CEA050549
:1011700091F800C0BCF1000F31D0146800202BE0C2
:101180004FF0010C0CFA00F3B1F800C00CEA0306B2
:101190009E4220D183004FF00F0C0CFA03F7BC43A2
:1011A00005FA03FC4CEA040491F803C0BCF1280FD3
:1011B00006D14FF0010C0CFA00FCC2F814C00AE092
:1011C00091F803C0BCF1480F05D14FF0010C0CFAA7
:1011D00000FCC2F810C0401C0828D1D31460B1F83C
:1011E00000C0BCF1FF0F34DD546800202EE000F198
:1011F000080C4FF0010808FA0CF3B1F800C00CEA33
:1012000003069E4221D183004FF00F0C0CFA03F726
:10121000BC4305FA03FC4CEA040491F803C0BCF19A
:10122000280F05D100F1080C08FA0CF8C2F8148058
:1012300091F803C0BCF1480F07D100F1080C4FF042
:10124000010808FA0CF8C2F81080401C0828CED318
:101250005460BDE8F0810246002093680B400BB15A
:10126000012000E000207047416170470161704734
:101270000AB1016100E04161704700BFFEE7000074
:1012800008B54020ADF8000003208DF8020048208A
:101290008DF8030069460248FFF752FF08BD0000C1
:1012A0000008014008B54020ADF8000003208DF88B
:1012B000020010208DF8030069460248FFF740FF46
:1012C00008BD00000008014010B500200A49086070
:1012D000FFF7E8FF00200949C1F89801022003F058
:1012E0003FF9012004490860052003F039F9002086
:1012F0000249C1F8940110BD94012142000021422D
:10130000032000BF011EA0F10102D0B2FAD1704744
:1013100008B50121042001F0CDF96020ADF80000EE
:1013200010208DF8030003208DF802006946044860
:10133000FFF706FF60210248FFF798FF08BD000095
:101340000008014010B500200A490860FFF7AAFF15
:1013500001200949C1F89801022003F001F9012098
:1013600004490860022003F0FBF800200249C1F89C
:10137000940110BD940121420000214270B5054640
:1013800000260024FFF77CFF00BF16E00020104974
:101390000860022003F0E4F801200E49C1F894012E
:1013A0006006040E0A487C38006808B1601CC4B2AC
:1013B000012003F0D5F8701CC6B2082EE6DB15B983
:1013C000FFF7C0FF01E0FFF77FFF204670BD000080
:1013D000940121420000214270B504460025FFF728
:1013E00061FF00200D49086000BF14E0E0090B49CF
:1013F000091D08606006040E01200949C1F8940126
:10140000022003F0ADF8002004490860022003F038
:10141000A7F8681CC5B2082DE8DB70BD9401214215
:101420000000214210B5FFF73DFF01200949086087
:101430000949C1F89401052003F092F800200549FC
:101440000860052003F08CF800200349C1F89401DE
:1014500010BD0000980121420000214210B5FFF7A5
:1014600021FF0020084908600849C1F898010520BB
:1014700003F076F80120044908600449C1F8980196
:10148000052003F06DF810BD9401214200002142B7
:1014900010B50024FFF7F4FE01200E49086003F0A8
:1014A0005FF801200C49C1F8940103F059F807E0F6
:1014B000601CC4B2FA2C03DDFFF7D0FF012010BD81
:1014C0000448803800680028F2D10249091F0860EA
:1014D00000BFF4E798012142000021423EB5002000
:1014E00027490860274828490860002027490860E4
:1014F00002F0C8FF03F041FD2549002003F014FD70
:1015000003F058FC962023490860002420E0224A7A
:1015100002EB8401214A02EB840003F09BFC1E488D
:1015200050F8240018490968884204D21A4850F833
:10153000240015490860184850F824001349096828
:10154000884204D9144850F8240010490860641CEB
:10155000104800688442DADB0F4850F82400104934
:10156000086010481049114A114BCDE90021029042
:10157000094A08480168094803F06EFA3EBD0000B8
:10158000D4000020FFFF0300C8000020CC00002092
:101590009D0000208C00002028160020D013002081
:1015A000D00000209C000020980000209400002023
:1015B0009000002008B50121082001F07BF84820A8
:1015C0008DF803004FF47040ADF8000003208DF853
:1015D000020069460148FFF7B3FD08BD000C014059
:1015E00010B54FF480517F48FFF735FEB8B10020A9
:1015F0007D4908707D4908807D48007828B1002029
:101600007B49087001207B4908707B48007870B3E3
:101610000020794908700B207649087027E072484D
:101620000078A0B971480088401C704908800846BD
:1016300000880A281BDD0020088001206C49087002
:1016400000206D4908700120674908700FE0674865
:101650000088401C6549088008460088B0F57A7FFC
:1016600005DD0020624908700120634908704FF4CD
:1016700000515C48FFF7EFFDB8B100205F490870EA
:101680005F4908805F48007828B100205D490870F4
:101690000220584908705C48007870B300205A490D
:1016A000087002205349087027E054480078A0B918
:1016B00053480088401C52490880084600880A2880
:1016C0001BDD0020088001204E49087000204E4993
:1016D00008700120494908700FE049480088401C03
:1016E0004749088008460088B0F57A7F05DD00206C
:1016F000444908700120444908704FF4804139483A
:10170000FFF7A9FD28B10020404908704049088032
:101710002DE03E48007888B93D480088401C3C498F
:101720000880084600880A2821DD00200880032060
:101730003049087001203549087018E034480088A5
:10174000B0F5FA7F05DA32480088401C304908803D
:101750000DE030480088401C2E490880084600886B
:10176000052804DD002008800320224908704FF47A
:1017700000411C48FFF76FFD28B100202649087082
:10178000264908802DE02448007888B9234800883D
:10179000401C22490880084600880A2821DD0020D4
:1017A000088004201349087001201B49087018E0C4
:1017B0001A480088B0F5FA7F05DA18480088401CFE
:1017C000164908800DE016480088401C144908801E
:1017D00008460088052804DD00200880042005490B
:1017E000087010BD000C01400B0000200800002014
:1017F0000A000020200000200C0000201100002022
:101800000E0000201000002012000020190000200F
:1018100014000020160000201F0000201A000020E5
:101820001C00002008B50121082000F043FF102013
:101830008DF803000120ADF8000003208DF80200B0
:1018400069460448FFF77CFC01210248FFF70CFDC4
:1018500008BD0000000C014010B5012211460248ED
:10186000FFF706FD10BD0000000C014010B500227E
:1018700001210248FFF7FCFC10BD0000000C0140F4
:101880001949097801B97047012802D0022826D1E8
:1018900011E015490978032903D01349097804296F
:1018A00008D10021114A91810121114A11700021B2
:1018B0000D4A117014E00C490978032905D1002163
:1018C000094A117001210B4A11700749097804294E
:1018D00004D10021044A1170064A117000E000BFD3
:1018E00000BF00BFCFE70000200000200001002063
:1018F000030000200000002008B50A48007840B12D
:10190000012010231D2219460090602000F076FA75
:1019100007E0012010231E2219460090602000F0ED
:101920006DFA08BD0000002000BFFEE77047000010
:1019300070B5002100230F22C47804B3154C24682D
:1019400004F4E064C4F5E064210AC1F10403CA4070
:10195000447804FA03F184781440214309010E4CC1
:101960000678A155047804F01F050124AC400578E1
:101970006D11AD0005F1E025C5F8004109E00478DE
:1019800004F01F050124AC40044D0678761145F89B
:10199000264070BD0CED00E000E400E080E100E0D6
:1019A00070B500240CE0002506E00020074901EB9B
:1019B000C5010855681CC5B2802DF6DB601CC4B299
:1019C000082CF0DB00F020F970BD0000240100209D
:1019D000F0B514460B46CF1701EB5777C7F3C70294
:1019E000CF1701EB5777FF10A1EBC707FEB201231A
:1019F000B340DDB24CB1134B03EBC0039B5C2B43F4
:101A0000104F07EBC007BB541AE00E4B03EBC003AB
:101A10009B5CDB430B4F07EBC007BB54094B03EB4D
:101A2000C0039B5C2B43074F07EBC007BB54054B20
:101A300003EBC0039B5CDB43024F07EBC007BB54C7
:101A4000F0BD00002401002010B580210A48FFF7F6
:101A50000DFC40210848FFF709FCFFF751FC8021ED
:101A60000548FFF701FCFFF74BFC40210248FFF758
:101A7000FBFBFFF745FC10BD000C014010B58021B9
:101A80000648FFF7F1FB40210448FFF7EFFBFFF7A3
:101A900037FC80210148FFF7E9FB10BD000C014035
:101AA00010B580210848FFF7E1FBFFF729FC402132
:101AB0000548FFF7DBFBFFF723FC40210248FFF757
:101AC000D3FBFFF71DFC10BD000C014008B5012140
:101AD000082000F0EFFD4020ADF8000014208DF844
:101AE000030003208DF8020069464048FFF728FBF9
:101AF00040213E48FFF7BAFB8020ADF80000694660
:101B00003A48FFF71DFB80213848FFF7AFFBC8209C
:101B100002F008FD0021AE2000F067FA002108461F
:101B200000F063FA0021102000F05FFA002140204D
:101B300000F05BFA0021812000F057FA0021CF204D
:101B400000F053FA0021A12000F04FFA0021C82034
:101B500000F04BFA0021A62000F047FA0021A8204F
:101B600000F043FA00213F2000F03FFA0021D3208B
:101B700000F03BFA0021084600F037FA0021D5209A
:101B800000F033FA0021802000F02FFA0021D92044
:101B900000F02BFA0021F12000F027FA0021DA20D2
:101BA00000F023FA0021122000F01FFA0021DB20B0
:101BB00000F01BFA0021302000F017FA002120204D
:101BC00000F013FA0021022000F00FFA00218D200E
:101BD00000F00BFA0021142000F007FAFFF7E0FEF6
:101BE0000021AF2000F001FA08BD0000000C014008
:101BF00010B50246012000E050430B1EA1F1010484
:101C0000E1B2F9D110BD000070B500242BE004F161
:101C1000B001C8B2002100F0E8F90021084600F048
:101C2000E4F90021102000F0E0F9FFF70DFF782023
:101C300000F01EF8FFF734FF402000F019F8FFF71E
:101C40002FFF002509E0094901EBC501085D00F0FF
:101C50000FF8FFF725FF681CC5B2802DF3DBFFF7F7
:101C60000DFF601CC4B2082CD1DB70BD2401002024
:101C700070B5044600251BE004F0800020B18021EF
:101C80000D48FFF7F3FA03E080210B48FFF7ECFA69
:101C9000FFF736FB40210848FFF7E8FAFFF730FB73
:101CA00040210548FFF7E0FA6006040E681CC5B243
:101CB000082DE1DB70BD0000000C01402DE9FE4F56
:101CC0000746884692461C460197CDF80080082CAE
:101CD00002D14FF006091FE02046E31704EB5373CF
:101CE000DB1021464FEAE47C04EB5C7C4FEAEC0C11
:101CF000A4EBCC0CBCF1000F02D04FF0010C01E0C2
:101D00004FF0000C6344224604EBD27C4FEA6C0C8B
:101D100003FB0CF303F0FF09AAF12000C6B2002573
:101D20005EE0082C07D106EB4600304901EB40008D
:101D300010F805B01DE00C2C07D106EB46002C492D
:101D400001EB800010F805B013E0102C05D12948F4
:101D500000EB061010F805B00BE0182C07D106EBCD
:101D6000C600254901EB800010F805B001E0BDE890
:101D7000FE8F002002901CE00BF0010028B14146CC
:101D800038460C9AFFF724FE09E00C9808B90120A8
:101D900000E00020024641463846FFF719FE4FEAB0
:101DA0006B0B08F1010000F0FF080298401CC0B264
:101DB000029002980828DFDB781CC7B2082C0BD0F1
:101DC00004EBD4714A100199791A8A4204D1019F17
:101DD00000980830C0B20090DDF80080681CC5B2E1
:101DE0004D459EDBFFF710FF00BFC0E7F85100082C
:101DF0002054000894580008845E00082DE9FC4F28
:101E00000746884616461C46BB46CDF80480204649
:101E1000E21704EB5272D2102146E31704EB53731E
:101E2000DB10A4EBC3030BB1012300E000231A4431
:101E3000624392B20092002559E0102C09D106EBC2
:101E4000C60000EB06102C4901EB400010F805908D
:101E50001BE0182C07D106EBC600284901EBC00097
:101E600010F8059011E0202C05D1254800EBC61094
:101E700010F8059009E0402C05D1224800EB4620DF
:101E800010F8059001E0BDE8FC8F4FF0000A1CE05F
:101E900009F0010028B1414638460B9AFFF798FD3A
:101EA00009E00B9808B9012000E0002002464146F5
:101EB0003846FFF78DFD4FEA690908F1010000F08F
:101EC000FF080AF1010000F0FF0ABAF1080FDFDB9A
:101ED000781CC7B2A7EB0B00A04204D15F46019863
:101EE0000830C0B20190DDF80480681C85B200980B
:101EF0008542A2DB00BFC6E7E06B0008027700085E
:101F00004A770008CA7700082DE9FF4F83B00646DC
:101F100091461F46DDE9104A4FF0000B082C01D115
:101F20004FF0020B002532E0781B401EC1B20A20A0
:101F3000FFF75EFEB9FBF0F00A21B0FBF1F201FB06
:101F40001208B8F1000F0FD104EBD4710BEB610153
:101F500001FB0561C8B223463022CDF800A00294EF
:101F60000499FFF7ABFE10E004EBD4710BEB6101B9
:101F700001FB0561C8B208F13001CAB22346CDF8B1
:101F800000A002940499FFF799FE681CC5B2BD42F7
:101F9000CADBFFF739FE07B0BDE8F08F2DE9F84343
:101FA00006460F4614461D46DDF8208013E0CDF8A6
:101FB000008022782B4639463046FFF77FFE082DF9
:101FC00002D1B01DC6B205E0284605EBD07106EB84
:101FD0006101CEB2641C2078202802DB20787E28A4
:101FE000E5DDFFF711FEBDE8F88370B505460C4648
:101FF000FFF72AFD7820FFF73BFEFFF751FD1CB1EC
:102000004020FFF735FE02E00020FFF731FEFFF72A
:1020100047FD2846FFF72CFEFFF742FDFFF72EFD98
:1020200070BD08B50120102317220021009008463A
:10203000FFF7E4FE0120102318220021009018462B
:10204000FFF7DCFE012010233A220021009020201F
:10205000FFF734FE012010233122194600900020A2
:10206000FFF7CCFE012010233222194600901846BB
:10207000FFF7C4FE012010233A22194600902020C9
:10208000FFF71CFE012010230922202100900020D0
:10209000FFF7B4FE012010230A22202100901846E9
:1020A000FFF7ACFE012010230B22202100903020EE
:1020B000FFF7A4FE012010230C22202100904020D5
:1020C000FFF79CFE01201023352220210090602084
:1020D000FFF794FE0120102336222021009070206B
:1020E000FFF78CFEFFF790FD08BD38B50446012CC4
:1020F00006D0022C25D0032C44D0042C7DD162E0E4
:10210000012010233E22002100900846FFF7D6FD53
:10211000012010232022194600900020FFF7CEFD59
:10212000012010232022114600900020FFF7C6FD59
:10213000012010232022302100900020FFF7BEFD57
:1021400065E0012010232022002100900846FFF7BF
:10215000B5FD012010233E22194600900020FFF714
:10216000ADFD012010232022114600900020FFF732
:10217000A5FD012010232022302100900020FFF730
:102180009DFD44E0012010232022002100900846FC
:10219000FFF794FD01201023202219460090002013
:1021A000FFF78CFD012010233E222021009000200B
:1021B000FFF784FD01201023202230210090002011
:1021C000FFF77CFD23E00120102320220021009056
:1021D0000846FFF773FD01201023202219460090C6
:1021E0000020FFF76BFD01201023202211460090F4
:1021F0000020FFF763FD012000E007E010233E22EE
:10220000302100900020FFF759FD00E000BF00BF23
:1022100038BD00001CB5012010233522002100909C
:102220001846FFF7EBFD0120102336220021009015
:102230002020FFF7E3FD012010230F220021009052
:102240003020FFF7DBFD012010231A46002100900B
:102250004020FFF7D3FD01201021CDE900101048E8
:102260008289032300215A20FFF74EFE012010230C
:102270001F22194600901846FFF7C0FD01201023C9
:102280002022194600901046FFF7B8FD01201023C8
:102290003A22194600904020FFF710FD1CBD0000B7
:1022A0000001002038B50446A1480078082844D22F
:1022B000DFE800F043040D161F28313A01201023F7
:1022C0002022002100900846FFF7F8FC36E00120AC
:1022D00010232022194600900020FFF7EFFC2DE08C
:1022E000012010232022114600900020FFF7E6FC79
:1022F00024E0012010232022302100900020FFF74D
:10230000DDFC1BE001201023202200210090084664
:10231000FFF7D4FC12E00120102320221946009080
:102320000020FFF7CBFC09E00120102320221146FA
:1023300000900020FFF7C2FC00E000BF00BF082CA7
:102340007ED2DFE804F0ED042546678AABCC01209D
:1023500010233E22002100900846FFF7AFFC012029
:1023600010232022194600900020FFF7A7FC01202F
:1023700010232022114600900020FFF79FFC01202F
:1023800010232022302100900020FFF797FCC8E0A6
:10239000012010232022002100900846FFF78EFC28
:1023A000012010233E22194600900020FFF786FCF2
:1023B000012010232022114600900020FFF77EFC10
:1023C000012010232022302100900020FFF776FC0E
:1023D000A7E0012010232022002100900846FFF7EB
:1023E0006DFC012010232022194600900020FFF7E9
:1023F00065FC012010233E22202100900020FFF7E1
:102400005DFC012010232022302100900020FFF7E6
:1024100055FC86E001201023202200210090084670
:10242000FFF74CFC012010232022194600900020C9
:10243000FFF744FC0120102320221146009000E009
:102440006EE00020FFF73AFC012010233E223021ED
:1024500000900020FFF732FC63E0012010233E22B1
:10246000002100900846FFF729FC012010232022BC
:10247000194600900020FFF721FC012010232022A4
:10248000114600900020FFF719FC012010232022A4
:10249000302100900020FFF711FC42E001201023C2
:1024A0002022002100900846FFF708FC012010239D
:1024B0003E22194600900020FFF700FC0120102367
:1024C0002022114600900020FFF7F8FB0120102386
:1024D0002022302100900020FFF7F0FB21E00120B6
:1024E00010232022002100900846FFF7E7FB01207F
:1024F00010232022194600900020FFF7DFFB012067
:1025000010233E22202100900020FFF7D7FB01205E
:1025100010232022302100900020FFF7CFFB00E0A5
:1025200000BF00BF02480470FFF76EFB38BD00001B
:102530000700002008B50120102317220021009079
:102540001846FFF75BFC01201023182200210090A1
:102550002020FFF753FC01201023122200210090BD
:102560003020FFF74BFC01201023132200210090A4
:102570004020FFF743FC012010233A220021009065
:102580005020FFF79BFB01201023172219460090D3
:102590001846FFF733FC012010231822194600903B
:1025A0002020FFF72BFC0120102311221946009058
:1025B0003020FFF723FC012010231322194600903E
:1025C0004020FFF71BFC012010233A2219460090FF
:1025D0005020FFF773FB01201023092220210090D7
:1025E0001846FFF70BFC012010230A22202100903F
:1025F0000846FFF703FC012010231222202100903F
:102600003020FFF7FBFB0120102313222021009034
:102610004020FFF7F3FB012010233A2220210090F5
:102620005020FFF74BFB012010230922302100909E
:102630001846FFF7E3FB012010230A223021009007
:102640002020FFF7DBFB0120102311223021009016
:102650000846FFF7D3FB01201023132230210090FE
:102660004020FFF7CBFB012010233A2230210090BD
:102670005020FFF723FB08BD7047000001460020F3
:10268000034A506820F440400843506070470000FF
:102690000010024029B1064AD2690243044BDA61B4
:1026A00004E0034AD2698243014BDA6170470000BB
:1026B0000010024029B1064A92690243044B9A6114
:1026C00004E0034A92698243014B9A61704700001B
:1026D0000010024030B500210022002400232D4DBF
:1026E0006D6805F00C0121B1042905D0082923D11A
:1026F00005E0294D056022E0274D05601FE0254DCE
:102700006D6805F47012234D6D6805F48034022560
:1027100005EB92421CB9214D554305600BE01D4D60
:102720006D6805F400351DB11C4D5543056002E090
:10273000194D5543056002E0174D056000BF00BF0D
:10274000144D6D6805F0F0010909154D6B5C0568C5
:10275000DD4045600F4D6D6805F4E061090A104DDC
:102760006B5C4568DD4085600A4D6D6805F460511D
:10277000C90A0B4D6B5C4568DD40C560054D6D6851
:1027800005F44041890B074D6B5CC568B5FBF3F55B
:10279000056130BD0010024000127A0000093D00C2
:1027A000E4000020F4000020FEB50024FA48FB49B4
:1027B00008600020FA490860322428E0F94850F8FF
:1027C0002410A4F13200F74A42F82010F64850F8DD
:1027D0002410A4F13200F44A42F82010F14850F8D5
:1027E0002400EE490968884204D2EE4850F82400DB
:1027F000EA490860EB4850F82400E9490968884232
:1028000004D9E84850F82400E5490860641C962C77
:10281000D4DB642471E0601EE24951F82000E349F2
:102820000860E04A02EB8401DF4A02EB840002F018
:1028300011FBDC4850F82400DC490968884232D991
:10284000D84951F82410D94A1268881AFDF770FE49
:102850000546D3490968D14A1268881AFDF768FE0F
:10286000064631462846FDF73BFD0546D049284639
:10287000FDF704FD0546CF480068FDF759FE064602
:102880002946FDF7F5FC054600212846FDF7D4FE54
:1028900003D20020C74908602EE02846FDF74DFE10
:1028A000C449086028E0BF4951F82410BF4A1268A3
:1028B000501AFDF73DFE0546B9490968B74A126846
:1028C000881AFDF735FE064631462846FDF708FD15
:1028D0000546B7492846FDF7D1FC05462846FDF7D1
:1028E0002CFEB44909680844B249086008460068EB
:1028F000FF2801D9FF200860641C962C8BDBAE48B2
:10290000AE49AF4AAF4BCDE900210290A54AAE488F
:102910000168A54802F0A0F8AC4801780078401C96
:10292000AA4A1070022972DD002011460870A248E0
:10293000007801286CD1A1480068962868DA9F4881
:1029400000683C2864DD0020A1490860A1480068B7
:10295000042819D10120A049086000209D49086081
:102960000C240EE09D4850F824000A309349096871
:10297000884205DD002098490860042095490860D8
:10298000641C102CEEDB04E092480068401C914966
:1029900008609148006800287BD1002406E08F4938
:1029A000601C51F8200041F82400641C0F2CF6DB59
:1029B000824800688949C86389480068102804DA99
:1029C00087480068401C86490860002085490860E7
:1029D00083480068022803DA00208349086058E031
:1029E0007F480068042814DA0E2408E07B4850F879
:1029F00024007C49096808447A490860641C102C4A
:102A0000F4DB7848006840107749086041E051E104
:102A100043E073480068082812DA0C2408E06F4885
:102A200050F824006F49096808446E490860641C26
:102A3000102CF4DB6B48006880106B49086028E0BC
:102A400067480068102812DA082408E0634850F844
:102A5000240064490968084462490860641C102C19
:102A6000F4DB60480068C0105F49086011E0002492
:102A700008E05A4850F824005A490968084459495E
:102A80000860641C102CF4DB56480068001156499D
:102A9000086000205049086011E000204D4908609E
:102AA0004B480068022805D100204F4908604C4976
:102AB000086004E046480068401C454908604048FA
:102AC0000078012867D13F480068502863DD002066
:102AD0004649086046480068042819D10120454944
:102AE00008600020424908600C240EE0424850F87B
:102AF00024000A3833490968884205DA00203D4934
:102B0000086004203A490860641C102CEEDB04E0E5
:102B100037480068401C364908603648006800287D
:102B200021D1002406E03449601C51F8200041F80E
:102B30002400641C0F2CF6DB224800682E49C86371
:102B40002E480068102804DA2C480068401C2B49E5
:102B5000086000202A49086028480068022803DA33
:102B60000020284908608FE02448006804284BDAD8
:102B70000E2408E0204850F8240021490968084440
:102B80001F490860641C102CF4DB1D4800684010CD
:102B90001C49086078E07BE0FFFF0300C8000020CC
:102BA000CC00002028160020D0130020D0000020E8
:102BB00000007F43D40000209C00002098000020EB
:102BC00094000020900000208C000020D8000020FD
:102BD000C4000020B0000020B800002080180020B1
:102BE000AC000020A000002084000020C0000020D5
:102BF000B4000020BC000020C0180020A800002065
:102C0000A4000020880000202B480068082812DA61
:102C10000C2408E0294850F8240029490968084490
:102C200027490860641C102CF4DB254800688010DC
:102C30002449086028E020480068102812DA082497
:102C400008E01E4850F824001D49096808441C4942
:102C50000860641C102CF4DB19480068C010194986
:102C6000086011E0002408E0144850F824001449DA
:102C70000968084412490860641C102CF4DB1048F1
:102C8000006800110F49086000200F49086011E03A
:102C900000200E4908600E480068022805D1002077
:102CA000084908600449086004E009480068401CBD
:102CB00007490860FEBD0000A8000020C0180020E1
:102CC000A400002088000020BC000020B4000020E8
:102CD000C0000020704700001CB5012010231E4AD0
:102CE000002100903020FFF759F901201021CDE993
:102CF00000101A480323302102680020FFF704F96E
:102D000001201021CDE9001014480323302142682E
:102D10000846FFF7F9F801201021CDE900100F480F
:102D20008289032330216020FFF7EEF80B48C07B37
:102D300040B1012010232E22194600903020FFF7C9
:102D40005DF807E0012010232F2219460090302063
:102D5000FFF754F81CBD00002A00002000010020ED
:102D60002DE9F04701F0ACFB04469B48007838B9E8
:102D700001F0A6FB0546FDF721FA012096490870EF
:102D80009648007820B1012812D0022847D119E0D6
:102D900093480068201AB0F5C87F08D9FEF756F9A5
:102DA0009048046001208D4908708D48046036E029
:102DB0008C480068201AB0F5C87F02D902208749E4
:102DC00008702CE0FEF766F8874908800846B0F9DD
:102DD000000040F25231884218D08348B0F9000018
:102DE000FDF79DFB05468149FDF77AFA8049886029
:102DF0008868FDF7DAFB05462A460B467DA17F4829
:102E000000F078FC01207A49887302E000207849BC
:102E100088730020714908707148046000BF00BFCA
:102E20006F484068201A322877D9FFF7BDFC7448F4
:102E30000068142801DD012000E0002005467148EB
:102E4000007885420DD055B900206D4908606E4963
:102E500008606E4908606E4908606E480460694801
:102E60000570002D72D06C480068401C6A490860EB
:102E700068480068201AB0F5FA6F68D301F020FBAB
:102E8000654909684718FDF78FF90646C7F3031827
:102E900006F00F0989EA0800C11700EB117109114A
:102EA000A0EB011A0AF15000554908600846006875
:102EB000502801DA502007E0514800685F2801DD02
:102EC0005F2001E04E4800684D4908604F480068A7
:102ED0000968884214D03112062291FBF2F302FBFA
:102EE000131000F15E01484A116011460968632918
:102EF00001DD632101E044490968434A11602CE087
:102F00004348006850B9B012062190FBF1F201FB72
:102F100012005E303C4908601FE03CE0311305229E
:102F200091FBF2F302FB1310801E3949096801443A
:102F3000354A1160114609685E2901DA5E2109E00F
:102F400031490968632903DD632103E010E018E0DB
:102F50002D4909682C4A116000BF294800682B4997
:102F60000860294800682A4908602A48046008E087
:102F70000020234908602449086024490860244946
:102F800008601F4800681A4908601F4800684860C8
:102F90001348446000BF21480068201AC8280BD994
:102FA000FEF796F8012802D11D49087002E00020C2
:102FB0001B490870194804601A480068201AC8287C
:102FC00003D900F011F91748046002F0E4F8084949
:102FD000C873BDE8F0870000700000203A000020B0
:102FE000540A00203C000020740000200000204112
:102FF0000001002025342E31662043002A000020E5
:10300000840000206800002088000020600000206C
:1030100064000020780000206C0000207C0000206C
:103020004C0000208000002010B50C4800780228D9
:1030300010D100200949087009480078401C08494F
:10304000087008460078022804DDFEF7A9FC01207C
:10305000034908700248007810BD000020000020DD
:103060000400002010B50C480078022810D1002080
:103070000949087009480078401C0849087008464A
:103080000078042804DDFEF78BFC0120034908705A
:103090000248007810BD000020000020050000203C
:1030A00010B500F001F810BD0CB5002001900090A3
:1030B0003348006840F480303149086000BF304830
:1030C000006800F4003000900198401C01900098C6
:1030D00018B90198B0F5A06FF1D12948006800F443
:1030E000003010B10120009001E000200090009815
:1030F000012843D12348006840F0100021490860AE
:103100000846006820F0030008600846006840F0A8
:10311000020008601A48406819494860084640683B
:1031200048600846406840F480604860084640684F
:1031300020F47C1048600846406840F4E81048607D
:103140000846006840F08070086000BF0C480068C6
:1031500000F000700028F9D00948406820F0030012
:10316000074948600846406840F00200486000BFD8
:103170000348406800F00C000828F9D10CBD00009D
:1031800000100240002002401CB501201021CDE9B2
:10319000001014484279032300215A20FEF7B4FEA0
:1031A00001201021CDE900100E48027903235A2096
:1031B000FEF7AAFE01201021CDE900100948C288BF
:1031C000032320215A20FEF79FFE01201021CDE984
:1031D000001004480289032330215A20FEF794FE90
:1031E0001CBD00001401002010B50A23274A2849FD
:1031F000284800F085FF26480068274908602748CE
:103200000078012806D100202549088025498881B9
:103210002249087024480078012800D110BD0021FF
:103220001D480068FDF712FA29D220491A480068A3
:10323000FDF756F804461D49FDF708FA1FD818484F
:1032400000884EF66021884204DA15480088401C48
:1032500013490880164800884EF66021884204DA37
:1032600013480088401C12490880124800880C4905
:103270000988884203D00A4800880E490880084817
:1032800000880849888100BFC8E700005800002076
:1032900054000020500000205C00002003000020AB
:1032A00024000020000100204C00002000002041EC
:1032B000260000204E000020042808D14FF0E02115
:1032C000096941F004014FF0E022116107E04FF07D
:1032D000E021096921F004014FF0E02211617047FB
:1032E0007047000070B53B48006840F00100394964
:1032F0000860084640683849084036494860084632
:10330000006836490840334908600846006820F4E0
:10331000802008600846406820F4FE0048604FF4B2
:103320001F008860FFF7BCFE2D4C251D207820284B
:103330004AD1002028602748806940F40060254970
:103340008861002000E0401C6428FCDB0020254947
:103350000880091D0880091D0880091D0880091DB5
:10336000088041F61F401F492831088042F20F7043
:10337000091D088000201B49243108801948143099
:10338000008840F0010017491431088015480C30BE
:10339000008840F0010013490C31088012211248C6
:1033A00001704FF00070114908600E4844300088E9
:1033B00040F400400B4944310880852009490880C9
:1033C0000121084800F062F84FF0006008490860E9
:1033D00070BD0000001002400000FFF8FFFFF6FE85
:1033E00000100020002C014019E400E000E100E0A2
:1033F00008ED00E010B50121880700F056F838B15B
:10340000FEF7EEF801F062F80121880700F03EF8BF
:1034100010BD7FB504460D4601210846FFF73AF975
:103420000020ADF80A00ADF80600ADF80850ADF880
:1034300004408DF80C0001A94FF0804000F050F8D6
:1034400001221146900700F041F81C208DF8000081
:1034500001208DF803008DF8010002208DF8020094
:103460006846FEF765FA0121880700F012F87FBD73
:1034700010B50121044800F018F818B101210248E4
:1034800000F004F810BD000000080040CA430282AA
:10349000704721B1028842F00102028004E00288F4
:1034A0004FF6FE731A400280704730B50246002086
:1034B00000230024158A05EA0103958905EA010421
:1034C00013B10CB1012000E0002030BD1AB1838996
:1034D0000B43838102E083898B4383817047000023
:1034E000002202881D4B98420ED01D4B98420BD0F3
:1034F000B0F1804F08D01B4B984205D01A4B984230
:1035000002D01A4B984204D14FF68F731A404B8861
:103510001A43174B984207D0164B984204D04FF6E7
:10352000FF431A40CB881A4302808B8883850B881F
:1035300003850A4B98420BD0094B984208D00E4B9A
:10354000984205D00D4B984202D00D4B984201D1C4
:103550000B7A03860123838270470000002C014010
:10356000003401400004004000080040000C00400E
:1035700000100040001400400040014000440140A1
:103580000048014000B585B0012144F20400FFF776
:1035900091F84FF40070ADF8100018208DF813006A
:1035A00003208DF8120004A91348FDF7C9FD4FF45C
:1035B0008060ADF8100004208DF8130004A90E48B7
:1035C000FDF7BEFD4FF4E13000900020ADF804009F
:1035D000ADF80600ADF80800ADF80C000C20ADF811
:1035E0000A006946054800F017F80121034800F079
:1035F00007F805B000BD0000000801400038014098
:1036000021B1828942F40052828104E082894DF620
:10361000FF731A40828170472DE9F04786B0054656
:103620000E460024A24600BFA1460027B08900B183
:1036300000BF2F462C8A4CF6FF700440F0880443EC
:103640002C82AC894EF6F3100440B08831890843CF
:10365000718908430443AC81AC8A4FF6FF400440B3
:10366000B0890443AC8201A8FFF734F81F488742B1
:1036700002D1DDF810A001E0DDF80CA0A88900F46B
:10368000004040B10AEBCA0000EB0A103168490063
:10369000B0FBF1F807E00AEBCA0000EB0A10316852
:1036A0008900B0FBF1F86420B8FBF0F004012009B8
:1036B000642101FB1089A88900F4004040B1322048
:1036C00000EBC900B0FBF1F000F00700044308E094
:1036D000322000EB09106421B0FBF1F000F00F0084
:1036E00004432C8106B0BDE8F0870000003801409B
:1036F00000BFFEE70FB4084B10B504A902AA039857
:1037000000F058F9044602A9002000F0D6FC20463B
:1037100010BC5DF814FB0000BB400008490050EAF3
:10372000C12018BF04204A0D18BF40F0010040F22C
:10373000FF72B2EB515F08BF40F00200012808BFE2
:10374000052070472DE9F0414F1E00EBC7010446EC
:10375000D1E9000115461E4637F006020DD02A4673
:103760003346FCF7FBFD7F1E04EBC703D3E90023C0
:10377000FDF761F837F00602F1D1022F25D0042FB2
:1037800013D0062F18BFBDE8F0812A463346FCF758
:10379000E5FDD4E90A23FDF74EF82A463346FCF747
:1037A000DDFDD4E90823FDF746F82A463346FCF749
:1037B000D5FDD4E90623FDF73EF82A463346FCF74B
:1037C000CDFDD4E90423FDF736F82A463346FCF74D
:1037D000C5FDD4E90223FDF72EF82A463346FCF74F
:1037E000BDFDD4E90023BDE8F041FDF724B8012276
:1037F000FDF7C8B8024A00201107FDF7C3B8000062
:1038000001FDFFFF02E008C8121F08C1002AFAD11B
:1038100070477047002001E001C1121F002AFBD150
:10382000704700000149086070470000FC0000205C
:103830002DE9FF5F82B00021DDE90430020DDDF8E3
:1038400040B0034318D044F61050A2F2FF32424376
:103850001514119801281FD0A5EB0B00401C5FEA3E
:10386000000A4FF000064E4FDFF83891B046504640
:1038700015D5CAF1000413E0119801244AA30128C8
:1038800001D16FEA0B010298119AC0E90031C0E939
:10389000024206B0BDE8F09FCBF10000DFE704462E
:1038A0000021404A491842EB0450CDE9001012E0D3
:1038B000E00707D032463B4640464946FCF74EFDFE
:1038C0008046894632463B4610461946FCF746FD7F
:1038D00006460F466410002CEAD1DDE90401DDE95B
:1038E0000023BAF1000F06DAFCF738FD42464B46DA
:1038F000FCF734FD05E0FCF7A3FD42464B46FCF720
:103900009FFD04460E460022284BFCF761FE03D8BB
:103910004FF0FF30014607E00022254B204631469C
:10392000FCF789FFFDF796F8102409E0002C0ADB6C
:103930000A220023FCF7AAFE039B30321A55641EAC
:1039400050EA0102F2D1641C039AC4F11103144439
:10395000119A012A03D0012208430DD10AE008433D
:1039600004D000204FF0110B119072E7A3EB0B0570
:103970006D1E0DE05B4504DD4FF0000205F1010511
:1039800004E003DA4FF00002A5F10105002AECD0B3
:1039900002981199C0E90231C0E9004579E70000B9
:1039A000000014400000F03F300000000000F04331
:1039B0000000E03F2DE9FF4F95B09A468846064645
:1039C0000025EEE1252877D100242746F94A012178
:1039D000039400E0044316F8013F203B01FA03F092
:1039E0001042F7D130782A2811D06FF02F033078A9
:1039F000A0F13002092A16D8039A44F0020402EB1F
:103A0000820203EB42021044761C0390EFE758F861
:103A1000042B0392002A03DA504244F4005403902A
:103A200044F00204761C30782E2816D116F8010FC7
:103A300044F004042A280DD06FF02F023078A0F152
:103A40003003092B09D807EB870302EB4303C718A0
:103A5000761CF3E758F8047B761C30786C280FD07E
:103A600006DC4C2817D068280DD06A2814D104E051
:103A7000742810D07A280FD10DE044F400140AE025
:103A800044F4801401E044F440147278824202D17C
:103A900004F58014761C761C307866280BD013DC75
:103AA000582877D009DC002875D04528F6D046285C
:103AB000F4D047281AD193E118E0632835D0642860
:103AC00079D0652812D18BE1702873D008DC672883
:103AD000F1D069286FD06E280DD06F2806D1ACE0E8
:103AE00073282CD0752874D0782853D05246179953
:103AF00090476D1C54E1C4F30250022809D00328FA
:103B00000DD0D8F8001004280DD00D6008F104087D
:103B100046E1D8F80010EA17C1E90052F6E7D8F8F4
:103B200000100D80F2E70D70F0E718F8041B8DF817
:103B3000001000208DF80100EB46012003E058F84A
:103B400004BB4FF0FF3061074FF0000102D40DE0DD
:103B500009F101018946B9420FDA8145F8DB1BF80A
:103B600009100029F4D108E009F1010189468142D8
:103B7000FADB1BF809100029F6D103985346A0EB95
:103B8000090721463846179A00F080FA284400EBCE
:103B9000090507E044E008E10DE01BF8010B52467F
:103BA00017999047B9F10109F7D253462146384693
:103BB000179AF2E039E00A21C4F302524FF0000BE9
:103BC0000091022A06D058F8040BC117032A09D025
:103BD0000AE023E008F1070020F00702F2E8020102
:103BE000904605E000B2C117042A01D140B2C117C6
:103BF000002906DA0A460021404261EB02012D222B
:103C000002E0220504D52B228DF80420012203E0D6
:103C1000E20701D02022F7E7914657E00A2100E0B1
:103C200010214FF0000B00910BE010214FF0000B22
:103C300044F004040827009103E008204FF0000B33
:103C40000090C4F30252022A05D058F8040B002158
:103C5000032A08D008E008F1070020F00702F2E884
:103C60000201904603E080B2042A00D1C0B24FF0B6
:103C7000000922072AD53278702A07D0DDF800C063
:103C80008CF0100C5CEA0B0C05D00EE040228DF895
:103C90000420012208E050EA010306D030238DF809
:103CA00004308DF8052002229146009B83F0080322
:103CB00053EA0B030AD150EA010201D1620705D58C
:103CC00030228DF804204FF001097F1E3278582AE7
:103CD00004D039A20C920CAA02920BE03BA2F9E7A5
:103CE0005B46009AFCF7D2FC0C9B9B5C029A521E2E
:103CF0000292137050EA0102F2D1029804A9081A44
:103D000000F1200B600702D524F4803400E0012785
:103D10005F4502DDA7EB0B0000E0002000EB0B018C
:103D2000009003984944401A0390E00306D4534698
:103D30002146179A039800F0A9F90544002706E0E8
:103D400001A85246C05D179990476D1C7F1C4F45D6
:103D5000F6DBE0030CD553462146179A039800F092
:103D600095F9054404E030205246179990476D1CA0
:103D70000099481E00900029F5DC08E0029802999D
:103D800052460078491C0291179990476D1CBBF16F
:103D90000001ABF1010BF1DC5BE100F065F90544DA
:103DA000761C307800287FF40DAE19B02846BDE8A7
:103DB000F08F0000092801003031323334353637B6
:103DC0003839616263646566000000003031323367
:103DD0003435363738394142434445460000000007
:103DE000600700D4062708F1070020F00700F0E87C
:103DF0000223804603F0004C5FEA0C0001D097A03C
:103E000009E0200501D596A005E0E00701D095A0C6
:103E100001E0AFF24C001390307823F000436528A6
:103E20000CD006DC452809D046281DD047287FD174
:103E30003BE0662818D067287AD136E00021112FA0
:103E400001DB112000E0781CCDE9000104A90CA8D9
:103E5000FFF7EEFCDDE90D010C9A4FF0000B07F1C6
:103E60000109109200914EE04FF000400097CDE91B
:103E7000011004A90CA8FFF7DBFCDDE90D020C9B87
:103E80000F994FF0000B91461093009211B9791CD5
:103E900000EB0109B7EB090003D4C0F1FF3B07F1C8
:103EA0000109A9EB0700019042E0012F00DA012788
:103EB0000021112F01DD112000E03846CDE900017D
:103EC00004A90CA8FFF7B4FCDDE90D010C9A0091E0
:103ED0004FF0000BB946109221070FD4009A4A45C3
:103EE00003DA914601E0A9F10109B9F1010F05DDFD
:103EF000109AA9F10101515C3029F4D0B84202DADC
:103F000010F1040F03DA0121CDE9011010E00028BF
:103F100003DC8344A9EB000102E0411C494500DDBC
:103F20008946A0EB0B00401C01904FF0004002902E
:103F3000200705D40198484502DB4FF0FF3001907F
:103F400000208DF84B0002980DF14B07B0F1004FA7
:103F500025D002200C902B200D90029800280CDA1E
:103F6000404202902D200D9007E00A210298FCF7B4
:103F700077FB3031029007F8011D0C99481E0C9018
:103F80000029F2DC02980028EFD1791E0D98087004
:103F9000307800F0200040F0450007F8020D11A82D
:103FA000C01BC01D02901398007800B1012000EBE7
:103FB0000901019801EBE071029801440398401A4D
:103FC000401E0390E00306D453462146179A0398F7
:103FD00000F05CF805441398007818B15246179920
:103FE00090476D1CE00323D553462146179A03984A
:103FF00000F04CF805441BE0BBF1000F07DB009814
:10400000584504DD1098179910F80B0001E0179936
:1040100030205246904701980BF1010B401E05F1EC
:104020000105019004D12E205246179990476D1C2E
:10403000B9F10001A9F10109DEDC05E017F8010B77
:104040005246179990476D1C0299481E029000290C
:10405000F4DC53462146179A03989EE62D00000093
:104060002B000000200000002DE9F041044600254F
:104070001E461746880404D405E039462020B04780
:104080006D1C641EF9D52846BDE8F0812DE9F0418C
:10409000044600251E469046C80301D5302700E09F
:1040A0002027880404D505E041463846B0476D1CFA
:1040B000641EF9D52846BDE8F0810A68531C0B60E0
:1040C0001070704710B50921312000F0B4F80B21B1
:1040D0002C2000F0B0F808212D2000F0ACF8802151
:1040E0002E2000F0A8F800211E2000F0A4F80021E6
:1040F0001F2000F0A0F80521202000F09CF810BD42
:104100002DE9FE4304460D4616461F46002020605A
:1041100028603060002F45D0804626E06A4601A91D
:1041200002A800F041F8BDF90800FCF7F8F9814653
:104130002168FCF74BF82060BDF90400FCF7EFF9AB
:1041400081462968FCF742F82860BDF90000FCF7B9
:10415000E6F981463168FCF739F83060052000F057
:10416000E1F908F1010000F0FF08B845D6DB384658
:10417000FCF7DEF9814649462068FCF7B1F820607B
:104180003846FCF7D5F9814649462868FCF7A8F877
:1041900028603846FCF7CCF9814649463068FCF780
:1041A0009FF83060BDE8FE832DE9FC4105460E46D0
:1041B0001746FDF737F9A620FDF70EF9FDF768F968
:1041C0003220FDF709F9FDF763F9FDF72BF9A72078
:1041D000FDF702F9FDF75CF900240EE0052C05D18E
:1041E0000020FDF7CBF80DF8040004E00120FDF7F6
:1041F000C5F80DF80400601CC4B2062CEEDBFDF718
:104200002DF99DF800009DF8011000EB012000B28F
:1042100028809DF802009DF8031000EB012000B2F9
:1042200030809DF804009DF8051000EB012000B2DD
:104230003880BDE8FC8170B505460C46FDF7F2F804
:10424000A620FDF7C9F8FDF723F92846FDF7C4F8C5
:10425000FDF71EF92046FDF7BFF8FDF719F9FDF748
:10426000FDF870BD2DE9F84F04460D4621F00040E1
:1042700000917349814211DC7249884201DC06D108
:104280002CB120462946BDE8F84FFFF7B0BA6E487A
:10429000002DCCBF6D496E49BDE8F88F6D49814254
:1042A00011DD6D498142D8BF4FF0FF366DDD2046EC
:1042B0002946FFF733FA042808BFFFF79BFA204688
:1042C0002946BDE8F88F6549654F25F000458142D4
:1042D00033DD6449814219DD002632464FF08043C8
:1042E00020462946FCF7A7FA80468A460122204646
:1042F0002946FCF747FB00223B46FCF73DFB4246C4
:104300005346FCF79DF804460D463EE00126002288
:10431000BA463B4620462946FCF78DFA80460F46B2
:104320000022534620462946FCF726FB42463B46E0
:10433000FCF786F804460D4627E04B4981421BDD19
:10434000DFF828A102260022534620462946FCF722
:1043500005F800223B46FCF76EFA80460F46002225
:10436000534620462946FCF707FB42463B46FCF7EE
:1043700067F804460D4608E0032622462B46002037
:104380003B49FCF75DF804460D4622462B46104695
:104390001946FBF7E3FF8B46824602460B46FBF7C6
:1043A000DDFF07460246334888460B46062178441F
:1043B000FFF7C8F952465B46FBF7D0FF82462E480E
:1043C0008B463A46434605217844FFF7BBF93A4607
:1043D0004346FBF7C3FF02460B46002E50465946A4
:1043E0000CDAFCF728FA22462B46FBF7B7FF01B0A0
:1043F00022462B46BDE8F04FFCF7C1BAFCF71BFA8A
:1044000022462B46FBF7AAFF1C4A7A4402EBC6035E
:10441000D3E90023FCF7B0FA22462B46FCF7ACFAAE
:10442000174A7A4402EBC603D3E90023FCF7A7FA44
:10443000009A002AB8BF81F00041BDE8F88F000063
:10444000000010440000F07F182D4454FB21F93F78
:10445000FB21F9BF0000DC3F0000203E0000F33FDD
:104460000000F03F0000E63F008003400000F83FFE
:104470000000F0BF3E370000FC3600009A36000016
:104480006236000008B501210420FEF713F903206D
:104490008DF8020014208DF803000220ADF8000012
:1044A00069460648FCF74CFE1020ADF8000069464E
:1044B0000248FCF745FE00F0C9F908BD00080140BC
:1044C0000148006870470000E000002002480068D2
:1044D000401C014908607047E000002010B5044608
:1044E0006FF00400FEF7E8FEE11704EB5171C1F331
:1044F000C701094A11701046007800EB4001C1EB7A
:10450000C0104FF6FF7101EAC00004490880002086
:104510000349086010BD0000DC000020DE00002020
:10452000E000002001460D4A12884A434FF0E02384
:104530005A6100229A6101221A6100BF4FF0E02205
:10454000106900F001021AB100F48032002AF5D09F
:1045500000224FF0E0231A619A617047DE000020CC
:1045600001460D4A12784A434FF0E0235A61002277
:104570009A6101221A6100BF4FF0E022106900F039
:1045800001021AB100F48032002AF5D000224FF067
:10459000E0231A619A617047DC0000202DE9F04F9A
:1045A00093B00446894692460A230FAA10A911A87F
:1045B000FFF7A6FD4FF064511198FBF75FFE0E90D8
:1045C0004FF064511098FBF759FE0D904FF0645175
:1045D0000F98FBF753FE0C900D990846FBF74EFE23
:1045E00001900C990846FBF749FE00900199FBF7F2
:1045F000EDFD8346FBF7D9FFCDE9020100F0D6FDC2
:10460000CDE906010E98FBF7D0FFCDE90401DDE905
:104610000623FBF715FFCDE90801FFF723FE074648
:1046200000223B4BFBF79AFE05463A4A3A4BFBF712
:1046300007FFCDE90A01FBF7E3FF20600C9908466C
:10464000FBF71CFE01900E990846FBF717FE009041
:104650000199FBF7BBFD8346FBF7A7FFCDE90201FC
:1046600000F0A4FD074688460D98FBF79EFF3A46EA
:104670004346CDE90401FBF7E3FECDE90601FFF770
:10468000F1FD05460022224BFBF768FE214A224B32
:10469000CDE90801FBF7D4FECDE90A01FBF7B0FF35
:1046A000C9F800000C98FBF780FFCDE906010D99D1
:1046B0000846FBF7E3FD01900E990846FBF7DEFD87
:1046C00000900199FBF782FD8346FBF76EFFCDE971
:1046D000020100F06BFDCDE90401DDE90623FBF7E3
:1046E000AFFE0546FFF7BEFD0022094BCDE90801EC
:1046F000FBF734FE0746074A074BFBF7A1FECDE95F
:104700000A01FBF77DFFCAF8000013B0BDE8F08F87
:1047100000806640182D4454FB21094010B510203C
:104720000949086000F012F802200749091F0860D3
:1047300000F00CF802200449086000F007F810208F
:104740000149091F086010BD14080140002001E064
:10475000411CC8B21E28FBDB7047000010B51020BA
:1047600007490860FFF7F2FF022005490860FFF7DC
:10477000EDFF02200249091D0860FFF7E7FF10BDA9
:104780001008014070B50024002516E06006040EF4
:1047900002200C490860FFF7D9FF0A480838006872
:1047A00000F0100008B1601CC4B202200549091DC8
:1047B0000860FFF7CBFF681CC5B2082DE6DB20467A
:1047C00070BD00001008014070B50446002520E0CF
:1047D00004F0800018B110200F49086003E0102099
:1047E0000D49091D0860FFF7B1FF02200A49086062
:1047F000FFF7ACFF02200849091D0860072D02D110
:104800001020091F08606006040EFFF79FFF681C58
:10481000C5B2082DDCDB70BD1008014010B51020BA
:104820000949086002200860FFF790FF1020064940
:10483000091D0860FFF78AFF02200349091D08606F
:10484000FFF784FF10BD00001008014010B51020D4
:10485000064908600220091F0860FFF777FF102053
:104860000249091F0860FFF771FF10BD14080140DD
:1048700010B510200C490860FFF768FF02200A49B4
:104880000860FFF763FF08480838006800F0100070
:1048900008B1012400E0002402200349091D08603A
:1048A000FFF754FF204610BD10080140FEF71AFD27
:1048B0004820FFF713FEFCF7F9F9FCF7B3FFFCF70C
:1048C00077FAFCF78FFAFEF75DFEFCF773FEFDF753
:1048D000FDF8FDF765F8FCF727FBFCF719FDFFF77E
:1048E000F1FBFCF7FBFD6420FFF71CFE40F2E73113
:1048F0004720FEF78EFDC820FFF714FE14203E4926
:1049000048711E2008714620C8805F200881502011
:1049100088815F20C8816EE0FEF722FA374804786C
:1049200037480078012804D002282AD0032860D113
:1049300044E0FDF776FBFEF7CFF9FCF7EDF9FCF765
:1049400067FA012C0FD102202D49087001202D4952
:10495000087000202C4908704870FDF721F80020ED
:10496000264908700CE00B2C0AD1FDF719F803203A
:104970002349087001202549087000201F4908704C
:1049800037E0FDF747FCFEF74FFB0546FDF7ADFBB3
:10499000FCF7B2FF1B480078FCF772FFFCF738FA0F
:1049A000012C0AD1012016490870FCF7F9FF0120FB
:1049B000174908700020114908701AE0FEF752FBF1
:1049C0000546FDF7B7FDFEF7DFFB2846FDF76AFC5D
:1049D000FDF71AF9012C0BD10120094908700B4988
:1049E0000870FCF7DDFFFDF71CFB00200349087091
:1049F00000BF00BF00BF8FE714010020200000208F
:104A0000020000200400002000000020050000201B
:104A1000060000202DE9F84705460C4616461F46BD
:104A2000DDE90A9ADDF824803B46324621462846D5
:104A3000CDF8008000F0CDFA4B463246214628469C
:104A400000F01CFB2068504501DA206800E0504669
:104A50002060BDE8F88700002DE9FF4FA4B0834631
:104A6000884600202390002405E05BF8241023985A
:104A700008442390641C4445F7DB2398B0FBF8F00E
:104A80002390002408E05BF824102398081A404281
:104A9000C44941F82400641C4445F4DB002417E0B9
:104AA000C04951F824200B46611C53F821100A44D8
:104AB000A11C53F821100A44E11C53F8211050188E
:104AC000C11700EB917189101A4642F82410641C3A
:104AD000922CE5DB0027002404E0B24850F82400C3
:104AE0000744641C962CF8DB962097FBF0F71E2FEA
:104AF00000DA1E273C2F00DD3C27002404E00020C4
:104B000012A941F82400641C0F2CF8DB0F200421AB
:104B10009623A44ACDE90071029021A912A8FFF7BB
:104B200079FF002011902198022821DB01240BE05D
:104B300012A850F82410601E12AA52F82000091A78
:104B4000119808441190641C21988442F0DB21984C
:104B5000401E119991FBF0F0119040F6B831119878
:104B600091FBF0F13298016001213398017005E06A
:104B70008D493298016000213398017000240BE0C8
:104B80005BF82400874941F82400269850F8240057
:104B9000864941F82400641C4445F1DB21982290A9
:104BA000002005900026002404E0002006A941F81A
:104BB0002400641C052CF8DB00240EE012A850F839
:104BC0002400962808DD7849279801600021319853
:104BD000017028B0BDE8F08F641C22988442EDDBA0
:104BE0000024A3E04FF07F400D900C9012A9601CB0
:104BF00051F8200051F82410401A03287EDD12A835
:104C000050F8245016E0674850F825100C9881425F
:104C100004DD644850F825000C900B95634850F86B
:104C200025100D98814204DD604850F825000D9054
:104C3000AA466D1C12A9601C51F82000A842E2DCB3
:104C4000601C51F82000594951F8200012A951F870
:104C50002410564A52F82110401A12A951F8241073
:104C6000AAEB01014843109012A9601C51F82000E2
:104C700051F82410411A109890FBF1F012A951F844
:104C8000241052F8211008441090104650F82A10B1
:104C90001098081A109012A9601C51F82000414980
:104CA00051F8200012A951F824103E4A52F8211060
:104CB000401A12A951F824200B99891A48430F90E1
:104CC00012A9601C51F8200051F82410411A0F98C5
:104CD00090FBF1F012A951F82410324A52F8211039
:104CE00008440F90104650F82A100F98081A0F9099
:104CF0000C9910984843C011049000E015E00D99FC
:104D00000F984843C0110390039800280DDD052E2D
:104D10000BDA049848B1642104984843039990FB46
:104D2000F1F006A941F82600761C641C2298401E6A
:104D3000A0423FF757AF314606A800F0D8F93046F9
:104D400006EBD0714FEA6109B9F1010F0CDDA9F151
:104D5000010106AA52F8211052F82920881800EB08
:104D6000D0714910059103E006A850F8290005907C
:104D7000059802280DDD0598B8280ADA0C4905982F
:104D8000085C0E9027990E980860012131980170F7
:104D900005E005492798016000213198017000BFA6
:104DA00017E70000700A002019FCFFFFC80C002064
:104DB000CA79000810B5C021022000F0E8F808B94F
:104DC000002010BD0021032000F0E1F808B9002008
:104DD000F7E70021042000F0DAF808B90020F0E736
:104DE0000021052000F0D3F808B90020E9E70021F0
:104DF000062000F0CCF808B90020E2E76F21082077
:104E000000F0C5F808B90020DBE70321092000F015
:104E1000BEF808B90020D4E72F210A2000F0B7F827
:104E200008B90020CDE717210C2000F0B0F808B930
:104E30000020C6E717210D2000F0A9F808B90020CE
:104E4000BFE77F21102000F0A2F808B90020B8E7E2
:104E50000120B6E7F8B504460D4600202860206022
:104E6000694600F061F86946012000F05DF8FFF73F
:104E7000D5FCAE20FFF7A8FCFFF7FAFC00B14FE02D
:104E80000720FFF7A1FCFFF7F3FC00B148E0FFF7B4
:104E9000C5FCAF20FFF798FCFFF7EAFC00B13FE04C
:104EA000FFF770FC0646FFF739FC360420683044F3
:104EB0002060FFF767FC0646FFF730FC36022068EB
:104EC00030442060FFF75EFC0646FFF727FC2068B1
:104ED00030442060FFF756FC0646FFF71FFC3604FF
:104EE000286830442860FFF74DFC0646FFF716FCA3
:104EF0003602286830442860FFF744FC0646FFF776
:104F00000DFC2868304428602068C0F31100206040
:104F10002868C0F311002860FFF798FC0120F8BD55
:104F2000FFF794FC0020FAE770B505460C46FFF742
:104F300075FCAE20FFF748FCFFF79AFC00B118E0C3
:104F40002846FFF741FCFFF793FC00B111E0FFF7A3
:104F500065FCAF20FFF738FCFFF78AFC00B108E0E2
:104F6000FFF710FC2070FFF7F9FBFFF76FFC012043
:104F700070BDFFF76BFC0020FAE710B54021092057
:104F800000F005F808B9002010BD0120FCE770B55D
:104F900005460C46FFF742FCAE20FFF715FCFFF775
:104FA00067FC00B111E02846FFF70EFCFFF760FC3C
:104FB00000B10AE02046FFF707FCFFF759FC00B1FB
:104FC00003E0FFF743FC012070BDFFF73FFC00202A
:104FD000FAE72DE9F04705461E46089C01204FF0F0
:104FE0000008002300274FF0040C4FF00009C1F81F
:104FF00000903DE0BFBB52F82090A14509DD52F87A
:1050000020A0A0F1010952F82990CA4501DD4FF016
:105010000108B8F1010F2AD152F82090A14505DA14
:10502000634503DA4FF00008002320E063451BD1FD
:1050300052F82090A1451ADAA0F1010952F82990FE
:10504000A14514DBD1F80090B9F10F0F07DAD1F8C0
:1050500000A00AF10109C1F8009045F82A000023D8
:105060009846082703E001E05B1C00E07F1E401C1F
:10507000A6F101098145BDDCBDE8F0872DE9F04FBF
:1050800005460C469246984629465046226800F04E
:1050900049F84FF0FF3621E0D4F800B0701C2060D2
:1050A000771C18E055F82710701C10B94FF0FF302E
:1050B00001E055F82600A1EB0009C14503DCC8F169
:1050C0000000814506DA55F827102268501C206040
:1050D00045F822107F1C5F45E4DB761C2068B04257
:1050E000DADC2846216800F002F8BDE8F08F30B520
:1050F0000C46012213E050F82230114605E04D1E07
:1051000050F8255040F82150491E002904DD4D1E5D
:1051100050F825509D42F2DC40F82130521CA2424A
:10512000E9DB30BDF0B503461546012217E051F822
:105130002240104605E0461E51F8266041F82060E6
:10514000401E002808DD53F82470461E51F82660E2
:1051500053F82660B742EEDC41F82040521CAA42C8
:10516000E5DBF0BD10B505210020FBF7EBFC10BD21
:1051700070B50024002507E0FFF7F4FF0444052084
:10518000FFF7D0F9681CC5B20A2DF5DB0A20B4FB85
:10519000F0F4A0B270BD10B5FFF7EAFF0446B4F515
:1051A0007A6F01DA012010BD0020FCE72DE9F04103
:1051B00006460F46FBF7FDFB041E0D4618BF0120F7
:1051C000284320F00040C0F17F6000F1E040C00FB4
:1051D0000ED0301C18BF0120384320F00040C0F131
:1051E0007F6000F1E040C00F04BF0120FEF71AFB12
:1051F00020462946BDE8F0810000000000000000C4
:10520000002F000000000700070000147F147F1427
:1052100000242A7F2A1200626408132300364955AD
:10522000225000000503000000001C224100000085
:1052300041221C000014083E08140008083E08081B
:10524000000000A060000008080808080000606076
:105250000000002010080402003E5149453E0000B5
:10526000427F4000004261514946002141454B3197
:10527000001814127F10002745454539003C4A4963
:1052800049300001710905030036494949360006D5
:105290004949291E0000363600000000563600003D
:1052A00000081422410000141414141400004122B8
:1052B000140800020151090600324959513E007C90
:1052C0001211127C007F49494936003E414141227A
:1052D000007F4141221C007F49494941007F090963
:1052E0000901003E4149497A007F0808087F000013
:1052F000417F4100002040413F01007F08142241CE
:10530000007F40404040007F020C027F007F040885
:10531000107F003E4141413E007F09090906003EE1
:105320004151215E007F091929460046494949310A
:105330000001017F0101003F4040403F001F20402D
:10534000201F003F4038403F0063140814630007EB
:105350000870080700615149454300007F41410042
:1053600000552A552A55000041417F0000040201E2
:1053700002040040404040400000010204000020C0
:1053800054545478007F48444438003844444420FE
:1053900000384444487F00385454541800087E09AB
:1053A00001020018A4A4A47C007F08040478000073
:1053B000447D4000004080847D00007F1028440030
:1053C0000000417F4000007C04180478007C080441
:1053D000047800384444443800FC2424241800187D
:1053E000242418FC007C0804040800485454542069
:1053F00000043F444020003C4040207C001C2040F2
:10540000201C003C4030403C004428102844001C34
:10541000A0A0A07C004464544C441414141414142C
:105420000000000000000000000000000000FC0080
:105430000000000002000000000C020C020000004E
:105440000000000090D0BCD0BC900003000300001E
:105450001824FE448C000302070201001824D8B06F
:105460004C80000300010201C038E438E000010272
:105470000201020208060000000000000000000017
:10548000000000F80402000000010204000204F819
:1054900000000004020100009060F860900000002D
:1054A000010000002020FC2020000000010000007E
:1054B000000000000000080600000000202020205E
:1054C00020000000000000000000000000000002BA
:1054D000000000000080601C0200040300000000C7
:1054E000F8040404F8000102020201000008FC00B4
:1054F0000000000203020000188444241800030284
:105500000202020008042424D80001020202010061
:1055100040B088FC80000000000302003C242424EA
:10552000C400010202020100F824242CC000010280
:10553000020201000C04E41C04000000030000004F
:10554000D8242424D8000102020201003844444433
:10555000F80000030202010000001000000000003B
:105560000200000000002000000000000600000013
:1055700000205088040200000000010290909090EA
:10558000900000000000000000020488502000028B
:10559000010000001804C4241800000002000000EC
:1055A000F804E494F80001020202020000E09CF01A
:1055B000800002030000030204FC2424D80002033C
:1055C00002020100F80404040C00010202020100BE
:1055D00004FC0404F80002030202010004FC247429
:1055E0000C0002030202030004FC24740C000203FA
:1055F00002000000F0080444CC4000010202010057
:1056000004FC2020FC040203000003020404FC0448
:105610000400020203020200000404FC0404060465
:105620000403000004FC24D00C0402030200030263
:1056300004FC04000000020302020203FC3CC03C24
:10564000FC0003000300030004FC30C4FC0402035C
:1056500002000300F8040404F80001020202010041
:1056600004FC24241800020302000000F8848404CF
:10567000F80001020207050004FC246498000203FC
:1056800002000302182424448C00030202020100D9
:105690000C04FC040C0000020302000004FC0000E7
:1056A000FC04000102020100047C80E01C040000F4
:1056B000030000001CE03CE01C00000300030000AD
:1056C000049C609C0400020300030200041CE01C14
:1056D00004000002030200000C84641C04000203A6
:1056E000020203000000FE020200000007040400A2
:1056F000000E30C00000000000010200000202FEA7
:105700000000000404070000000402040000000080
:105710000000000000000000000008080808080859
:105720000000020000000000000000000040A0A0F7
:10573000C00000010202030204FC2020C00000039C
:105740000202010000C020206000000102020200ED
:1057500000C02024FC0000010202030200C0A0A03F
:10576000C0000001020202000020F824240400020C
:10577000030202000040A0A0602000070A0A0A04F9
:1057800004FC2020C0000203020003020020E40009
:105790000000000203020000000020E400000808EE
:1057A0000807000004FC80E020200203020003023E
:1057B0000404FC000000020203020200E020E020DA
:1057C000C00003000300030020E02020C00002030B
:1057D0000200030200C02020C000000102020100FC
:1057E00020E02020C000080F0A02010000C0202095
:1057F000E0000001020A0F0820E040202000020320
:10580000020000000060A0A02000000202020300CD
:105810000020F820000000000102020020E000202B
:10582000E00000010202030220E02080602000006E
:10583000030100006080E0806000000300030000BE
:1058400020608060200002030003020020E020802E
:1058500060200808070100000020A060200000026E
:1058600003020200000020DE020000000007040026
:10587000000000FF00000000000F00000002DE201A
:1058800000000004070000000201020404020000FE
:105890000000000000000000000000000000000008
:1058A00000000000000000F80000000000000033CD
:1058B0003000000000100C06100C06000000000074
:1058C0000000000040C07840C0784000043F04045D
:1058D0003F040400007088FC08300000001820FF1E
:1058E000211E0000F008F000E018000000211C0359
:1058F0001E211E0000F00888700000001E212324D5
:105900001927211010160E000000000000000000F2
:1059100000000000000000E0180402000000000782
:105920001820400000020418E00000000040201889
:1059300007000000404080F0804040000202010F5C
:1059400001020200000000F0000000000101011F40
:1059500001010100000000000000000080B07000A4
:105960000000000000000000000000000001010134
:1059700001010101000000000000000000303000C3
:10598000000000000000000080601804006018069D
:105990000100000000E010080810E000000F1020D7
:1059A00020100F00001010F8000000000020203F21
:1059B00020200000007008080888700000302824AB
:1059C000222130000030088888483000001820204C
:1059D00020110E000000C02010F800000007042471
:1059E000243F240000F808888808080000192120B6
:1059F00020110E0000E0108888180000000F112010
:105A000020110E0000380808C83808000000003FC8
:105A1000000000000070880808887000001C222127
:105A200021221C0000E010080810E00000003122D4
:105A300022110F00000000C0C00000000000003074
:105A400030000000000000800000000000008060C6
:105A50000000000000008040201008000001020447
:105A6000081020004040404040404000040404042E
:105A700004040400000810204080000000201008EA
:105A800004020100007048080808F000000000301F
:105A900036010000C030C828E810E00007182724AD
:105AA00023140B000000C038E0000000203C23025B
:105AB0000227382008F8888888700000203F2020BE
:105AC00020110E00C03008080808380007182020F0
:105AD0002010080008F808080810E000203F2020E7
